:020000040800F2
:1000000000B50120113C0008210400082304000869
:10001000270400082B0400082F040008000000003B
:100020000000000000000000000000003304000891
:1000300035040008000000003704000839040008F7
:100040002B3C00082B3C00082B3C00082B3C0008F4
:100050002B3C00082B3C00082B3C00082B3C0008E4
:100060002B3C00082B3C00082B3C00082B3C0008D4
:100070002B3C00082B3C00082B3C00082B3C0008C4
:100080002B3C00082B3C00082B3C00082B3C0008B4
:100090002B3C00082B3C00082B3C00089139000841
:1000A0002B3C00082B3C00082B3C00082B3C000894
:1000B0002B3C0008E9080008FD6E00082B3C0008F6
:1000C0002B3C00082B3C00082B3C00082B3C000874
:1000D0002B3C0008813B0008470800082B3C000827
:1000E0002B3C00082B3C00082B3C00082B3C000854
:1000F0002B3C00082B3C00082B3C00082B3C000844
:100100002B3C0008F93600082B3C00082B3C00086B
:100110002B3C00082B3C00082B3C00082B3C000823
:100120002B3C00082B3C00082B3C00082B3C000813
:100130002B3C00082B3C00082B3C00082B3C000803
:100140002B3C00082B3C00082B3C00082B3C0008F3
:100150002B3C00082B3C00082B3C00082B3C0008E3
:100160002B3C00082B3C00082B3C00082B3C0008D3
:100170002B3C00082B3C00082B3C00082B3C0008C3
:100180002B3C00082B3C000800F002F800F06DF852
:100190000AA090E8000C82448344AAF10107DA45E2
:1001A00001D100F062F8AFF2090EBAE80F0013F0C7
:1001B000010F18BFFB1A43F001031847F88303002F
:1001C000188403000A444FF0000C10F8013B13F0B0
:1001D000070408BF10F8014B1D1108BF10F8015BA0
:1001E000641E05D010F8016B641E01F8016BF9D193
:1001F00013F0080F1EBF10F8014BAD1C0C1B09D1EA
:100200006D1E58BF01F801CBFAD505E014F8016B5B
:1002100001F8016B6D1EF9D59142D6D370470000ED
:100220000023002400250026103A28BF78C1FBD8FF
:10023000520728BF30C148BF0B60704764290BF0DC
:10024000DD8075290BF0DA8078290BF013816329A2
:100250000BF0888373290BF08D83002070471FB546
:100260000BF025FC1FBD10B510BD0BF0E7FB1146D0
:10027000FFF7F5FF00F070F80BF005FC03B4FFF793
:10028000F2FF03BC03F01CFC30BF72B6704762B6CD
:10029000704780F3088870472DE9FC4780464FF08F
:1002A00000090024002701224146504808F0ABFF16
:1002B000054615B1601EBDE8FC874C48D0F80CA07F
:1002C0004FF00009002637E001AB4FF49632484862
:1002D0000168464809F057F8054615B16FF001006E
:1002E000E9E743480068009007F1A00083B2B9B283
:1002F000F022002001F06CF8601CC4B2204604EB30
:10030000D0714910A4EB4101CCB2204604EBD0716E
:100310004910A4EB410109B1A02100E000210F46E2
:1003200009F596394946314809F06CFA054615B188
:100330006FF00200BFE7761C4FF496309AFBF0F0A6
:10034000B042C1DC294809F04BFA054615B16FF0FF
:100350000300B0E70020AEE700BF00BF4FF4A0608D
:1003600003F076FCA82003F029FB4FF4E13003F002
:10037000B5FB4FF4E13000F015FA00F067F900F03A
:100380000FFE00200AF0B9FE02200AF0B6FE03F0CC
:1003900093FA03F0D3FA00201649086042F2CF0125
:1003A00042F20F7000F074FA4FF47840124908805E
:1003B00000BF02F075F90028FBD10AF0BBFD0F4821
:1003C00000680F4908600F49012208680EA108F073
:1003D000EFFE4FF4963100200AF051FF0449086007
:1003E0000AA0FFF759FF00BFFEE70000F801002058
:1003F000140000209C02434238000020BC01002071
:100400000C000020C02F0020303A0000303A2F743A
:100410007275655F746573742E62696E000000000A
:10042000704700BFFEE700BFFEE700BFFEE700BF6A
:10043000FEE7704770477047704700000CB500201A
:10044000019000907648006840F48030744908605C
:1004500000BF7348006800F4003000900198401C11
:100460000190009818B90198B0F5A04FF1D16C48EF
:10047000006800F4003010B10120009001E000207D
:1004800000900098012846D165484030006840F04F
:1004900080506349403108606248006840F4404041
:1004A000604908605E48083000685D4908310860AE
:1004B0000846006840F4004008600846006840F4C0
:1004C000A05008605848091F0860081F006840F0E5
:1004D0008070091F086000BF5148006800F000707C
:1004E0000028F9D040F20570504908604C480830A7
:1004F000006820F003004A49083108600846006897
:1005000040F00200086000BF45480830006800F075
:100510000C000828F8D10CBD10B54548006840F41F
:100520007000434908603E48006840F001003C49C3
:10053000086000203A4908310860394800683D49A0
:100540000840374908603C48091D0860081F0068DA
:1005500020F48020091F0860002031490C31086018
:10056000FFF76CFF4FF0006031498039086010BD23
:1005700070B500200022022300240221284D0835F6
:100580002D6805F00C0020B1042806D0082834D1CD
:1005900007E02A4D2A4E356033E02A4D284E35605B
:1005A0002FE01F4D2D1D2D68C5F380541C4D2D1DB2
:1005B0002D6805F03F0154B1224DB5FBF1F5184E01
:1005C000361D3668C6F3881605FB06F209E01B4D9A
:1005D000B5FBF1F5124E361D3668C6F3881605FBDD
:1005E00006F20F4D2D1D2D68C5F301456D1C6B00E6
:1005F000B2FBF3F5124E356003E0104D104E35603E
:1006000000BF00BF064D08352D68C5F303150E4E1B
:10061000705D0B4D2D68C540094E356070BD000002
:10062000003802400070004008544007003C02407F
:1006300088ED00E0FFFFF6FE103000240024F400F7
:100640001800002000127A001C0000201CB50121B7
:10065000602004F049FB4FF4C060009001208DF849
:10066000040000208DF8060003208DF8050001200D
:100670008DF807006946094803F0E0FB02208DF879
:100680000700802000906946054803F0D7FB4FF42F
:10069000C061024803F04EFC1CBD00000014024083
:1006A000001802401CB50121202004F01DFB4FF46E
:1006B0000070009000208DF8040003208DF80500E4
:1006C00001208DF807006946324803F0B7FB1CBDD6
:1006D00010B5044614B101202F4908702E48007847
:1006E000002839D04FF400712A4803F009FC78B192
:1006F00008212A4803F004FC50B10421274803F0E4
:10070000FFFB28B10121264803F0FAFB012823D181
:100710000A2003F0B5F900201F4908704FF400715A
:100720001C4803F0EDFB08B9012010BD08211B484F
:1007300003F0E6FB08B90220F7E70421174803F0AD
:10074000DFFB08B90320F0E70121154803F0D8FBCF
:1007500001281CD10420E8E74FF400710D4803F094
:10076000CFFB012813D108210C4803F0C9FB012855
:100770000DD10421094803F0C3FB012807D1012151
:10078000074803F0BDFB10B90120034908700020A1
:10079000CBE70000001402402C00002000100240B3
:1007A0000000024010B588B004460121084604F05C
:1007B0009BFA0121480404F0E0FA0C200690022084
:1007C0008DF81C008DF81D0000208DF81E00012002
:1007D0008DF81F0006A92A4803F030FB07220221EA
:1007E000274803F0B6FB07220321254803F0B1FB9D
:1007F00002940020ADF80C00ADF80E00ADF810002A
:10080000ADF814000C20ADF8120002A91D4804F048
:1008100070FC01211B4804F0F4FC012240F2255138
:10082000184804F0A4FD26208DF8040000208DF85F
:1008300005008DF8060001208DF8070001A803F0DF
:100840000CFA08B010BD10B540F225510D4804F067
:10085000C9FDA0B10B49091D0988C8B203F032F8DF
:1008600009480068401C0849086008460068B0F55F
:10087000406F04D10020086001200449087010BDB9
:1008800000000240004400403400002030000020FE
:100890007FB504460D460121022004F06EFAADF842
:1008A00004500020ADF806000294ADF80C0001A938
:1008B000124804F08EFE01221146104805F02AFB72
:1008C00001210E4804F00EFF1D208DF800000220CB
:1008D0008DF8010003208DF8020001208DF803003F
:1008E000684603F0BAF97FBD10B50121034805F051
:1008F00028FB0121014805F035FB10BD0004004034
:10090000F64A1080921C1180704710B50446F348D7
:100910000480042003F06CF8F048801C008810BDAF
:1009200000BF011EA0F10102D0B2FAD17047EC481D
:100930000088EA49088070472920E8490880704704
:100940002820E6490880704730B58418641EA2B29A
:10095000CC18641EA3B2E34C24786CBBE24C248810
:1009600041F66315AC4227D1E04C2488A41A241A1E
:10097000A0B2CC18641EA3B2DD4C2488D74D2C80C5
:100980000412AD1C2C80C4B22C808418641EC4F3E5
:100990000F242C808418641EE4B22C80D54C24884B
:1009A000AD1E2C800C12AD1C2C80CCB22C801C12E5
:1009B0002C80DCB22C8019E0CD4C2488C74D2C80D3
:1009C0000412AD1C2C80C4B22C8014122C80D4B222
:1009D0002C80C84C2488AD1E2C800C12AD1C2C80A1
:1009E000CCB22C801C122C80DCB22C8030BD70B5B7
:1009F000054600240026BB480078012805D1BA48E6
:100A0000008849F24131884208D0B6480078F0B9F0
:100A1000B548008841F66311884218D1082D15D2D7
:100A2000DFE805F00406080A0C0E101206250DE09A
:100A300007250BE0042509E0052507E0012505E071
:100A4000002503E0032501E0022500BF00BF082DBB
:100A50001CD2DFE805F00406090C0F12151800BFC0
:100A600014E044F0800411E044F040040EE044F04F
:100A7000C0040BE044F0200408E044F0600405E00A
:100A800044F0A00402E044F0E00400BF00BF3626BA
:100A90009548008849F24131884201D144F0080468
:100AA00021463046FFF72CFF934803888F48028881
:100AB00000210846FFF748FF70BD10B504468CBB07
:100AC0000020884908708848008849F241318842EE
:100AD00010D12C20824908802A20854908802B20AB
:100AE00084490880F020814908804FF4A070824931
:100AF000088049E07C48008841F66311884243D170
:100B00002C20774908802B20794908802A207949B0
:100B100008804FF4F070754908804FF448707649AA
:100B2000088031E0FFE701206E4908706E480088B8
:100B300049F24131884210D12C20694908802A208D
:100B40006B4908802B206B4908804FF4A0706749DF
:100B50000880F0206849088016E06348008841F664
:100B60006311884210D12C205D4908802A206049F9
:100B700008802B205F4908804FF448705B4908804B
:100B80004FF4F0705C4908800020FFF730FF10BD83
:100B9000554A128849F241339A4212D1544A128876
:100BA0004E4B1A8002129B1C1A80C2B21A80514A04
:100BB00012889B1E1A800A129B1C1A80CAB21A80C5
:100BC00042E0494A128841F663139A423CD1454AB1
:100BD00012788AB9454A1288521E121A90B2444AB3
:100BE00012883E4B1A8000229B1C1A801A80021227
:100BF0001A80C2B21A8013E03D4A1288374B1A801D
:100C000002129B1C1A80C2B21A80384A1288521EE5
:100C1000C2F30F221A80354A1278521ED2B21A80BD
:100C2000344A12882D4B1A800A129B1C1A80CAB2B1
:100C30001A80314A1288521EC2F30F221A802E4A9D
:100C40001278521ED2B21A8070473EB504460D4645
:100C5000002002900190009029462046FFF798FF5F
:100C60002E201E490880881C008802901E4800889B
:100C700041F66311884202D1BDF808003EBD022052
:100C8000FFF74EFE1548801C00880090BDF8080054
:100C9000C0B20190BDF804004FF6FF7101EA0020D8
:100CA0000190BDF80800C012C002BDF804108912FE
:100CB00040EA4110BDF8001040EAE120DEE730B51F
:100CC00004460D4629462046FFF762FFFFF72FFE38
:100CD0000A4800880149891C088030BDFE1F006C4D
:100CE000440000203E0000203C0000204000002086
:100CF000460000204800002042000020380000206C
:100D000070B505460E46144631462846FFF7D7FF14
:100D1000FE480088FE490880881C048070BDBE2102
:100D2000FB4A11800521921C118011460880012187
:100D30001180FF211180002111801180704770B552
:100D4000044600250026F3480088F349098800FB83
:100D500001F600210846FFF71BFFFFF7E8FD00BF83
:100D600003E0EB48801C04806D1CB542F9D370BDD4
:100D700000B59FB00121782003F0B6FF012108469D
:100D800003F0EAFF4FF480601D9001208DF8780099
:100D900000208DF87A0002208DF8790001208DF86E
:100DA0007B001DA9DD4803F049F84CF233701D901B
:100DB00002208DF8780000208DF87A0003208DF84D
:100DC000790001208DF87B001DA9D54803F036F885
:100DD0004FF680701D9002208DF8780000208DF86D
:100DE0007A0003208DF8790001208DF87B001DA981
:100DF000CC4803F023F804201D9002208DF87800E1
:100E000000208DF87A0003208DF8790001208DF8FC
:100E10007B001DA9C44803F011F84FF480501D90C9
:100E200002208DF8780000208DF87A0003208DF8DC
:100E3000790001208DF87B001DA9BB4802F0FEFF60
:100E40000C220021B64803F084F80C220121B4489A
:100E500003F07FF80C220421B14803F07AF80C2249
:100E60000521AF4803F075F80C220821AC4803F0C7
:100E700070F80C220921AA4803F06BF80C220A2111
:100E8000A74803F066F80C220E21A54803F061F88C
:100E90000C220F21A24803F05CF80C220721A14884
:100EA00003F057F80C2208219E4803F052F80C2258
:100EB00009219C4803F04DF80C220A21994803F0BF
:100EC00048F80C220B21974803F043F80C221146F6
:100ED000944803F03EF80C220D21924803F039F8B3
:100EE0000C220E218F4803F034F80C220F218D487C
:100EF00003F02FF80C2202218B4803F02AF80C2271
:100F00001146894803F025F80F200790002008902B
:100F10003C20099000200A900B900C900D90082026
:100F20000090002001900720029000200390049080
:100F30000590069006200E9000200F901090102033
:100F400011900020129014901390159016904FF469
:100F500080501790002018904FF480401990002086
:100F60001A9007A81B90CDF870D00EA803F045F892
:100F70000121062003F0CCF8322002F081FD1FB0E1
:100F800000BDD321624A1180911C08880888088816
:100F90004FF6FF7101EA0020911C09880843704751
:100FA00010B5FFF7E5FEFFF7ECFF60490880084643
:100FB000008849F24131884223D0A1205449088059
:100FC000881C0088594908805148801C0088088086
:100FD000084600884FF6FF7101EA00205349088057
:100FE0004B48801C008809880843504908800846FF
:100FF000008845F26171884203D141F663104B4984
:1010000008804A48008849F2413188421CD148484A
:10101000006820F00F004FF02041C1F81C01084685
:10102000D0F81C0120F47060C1F81C010846D0F80B
:101030001C0140F00300C1F81C010846D0F81C0157
:1010400040F40070C1F81C013848008849F2413171
:1010500088426FD1CF202E4908800020891C08804B
:10106000C120088030200880ED20891E088064207F
:10107000891C0880032008801220088081200880B5
:10108000E820891E08808520891C0880102008809F
:101090007A200880CB20891E08803920891C08808E
:1010A0002C2008800020088034200880022008803E
:1010B000F720891E08802020891C0880EA20891ECC
:1010C00008800020891C08800880C020891E0880B4
:1010D0001B20891C0880C120891E08800120891CD2
:1010E0000880C520891E08803020891C088008805F
:1010F000C720891E0880B720891C08803620891ED9
:1011000008804820891C08803A2014E04400002010
:10111000FE1F006C4000002042000020001402402E
:10112000000C024000100240001802403C00002069
:101130001C0100A082E0891E08805520891C0880BF
:10114000B120891E08800020891C08801A20088090
:10115000B620891E08800A20891C0880A2200880E9
:10116000F220891E08800020891C08802620891E04
:1011700008800120891C0880E020891E08800F203B
:10118000891C08802A2008802820088008200880E0
:101190000E2008800820088054200880A92008809C
:1011A000432008800A2008800F2008800020088043
:1011B000088008800880E120891E08800020891CA2
:1011C000088015200880172008800720088011203B
:1011D0000880062008802B200880562008803C20AC
:1011E000088005200880102008800F2008803F20FC
:1011F000088008800F2008802B20891E088000208E
:10120000891C08800880012008803F2008802A204F
:10121000891E08800020891C088008800880EF2033
:1012200008801120891E0880782002F029FC2920DE
:10123000FA4908800120FA49086098E0F9480088D6
:1012400041F663118842F8D1E220F44908801D205C
:10125000891C08800220088004200880642002F095
:10126000C7FBE020ED4908800120891C08800A2086
:1012700002F006FCE020E94908800320891C088070
:101280000C2002F0FDFB0120E44908800A2002F056
:10129000F7FBE620E14908802F20891C0880FF2009
:1012A00008800880B020891E08802020891C0880C2
:1012B000002008800320088040F21F3008800120B1
:1012C000088040F2DF10088000200880B420891ECA
:1012D00008800420891C088040F21F4008800020FC
:1012E00008802E2008800020088008800880088060
:1012F000B620891E08800220891C08804FF40370E4
:101300000880002008801720088015200880002011
:1013100008800880F020891E08800320891C08802E
:101320002920891E0880D02008800020891C088080
:10133000BE20891E08800520891C0880FE200880A8
:10134000012008800020088008800880B820891EBD
:1013500008800320891C088001200880BA20891E8B
:1013600008800120891C0880FF20FFF7D8FC00209E
:10137000FFF7A3FB4FF6FF70FFF7E1FC10BD2DE96F
:10138000F04F05460E4617469846DDF824A04FF06C
:10139000000B781B401C1FFA80FB344614E02146EA
:1013A0002846FFF7F5FBFFF7C2FA4FF0000907E008
:1013B0009A48801CA0F800A009F101001FFA80F9EA
:1013C000D945F5DB601C84B24445E8DDBDE8F08F0B
:1013D0002DE9F84F07460D4690469946DDF828B0AE
:1013E000A8EB0700401C80B20090A9EB0500401C50
:1013F0001FFA80FA002416E0281981B23846FFF758
:10140000C7FBFFF794FA002608E004FB0A603BF8EC
:1014100010008249891C0880701C86B200988642A0
:10142000F3DB601C84B25445E6DBBDE8F88F2DE9A0
:10143000FF4F074616461C46BB460C2C01D198466A
:101440000AE0102C01D1A04606E0182C02D14FF082
:10145000300801E0BDE8FF8FA6F12000C6B20025EC
:1014600048E00C2C07D106EB46006F4901EB8000E9
:1014700010F8059010E0102C05D16C4800EB061018
:1014800010F8059008E0182C06D106EB46006849D4
:1014900001EB001010F805904FF0000A24E009F06D
:1014A000010030B16348028838460199FFF728FCF3
:1014B00005E06148028838460199FFF721FC4FEAB0
:1014C0006909781C87B2A7EB0B0104EBD472B1EB6E
:1014D000620F05D15F460198401C80B2019006E082
:1014E0000AF1010000F0FF0ABAF1080FD7DB00BFD4
:1014F000681CC5B24545B4DB00BFABE7F0B5064696
:101500000F4615461C4611E022782B4639463046D8
:10151000FFF78DFF284605EBD07106EB61018EB217
:1015200046480088864200DB06E0641C20782028BC
:1015300002DB20787E28E7DD00BFF0BD2DE9F04F0B
:1015400004460D4616461F46DDE909893948B0F8BC
:1015500000A03948B0F800B03648A0F800803648FE
:10156000A0F800903B46324629462046FFF7C6FFCA
:101570003048A0F800A03048A0F800B0BDE8F08FD7
:1015800010B50246012000E050430B1EA1F10104FA
:10159000E1B2F9D110BD2DE9FF4F81B00746904669
:1015A0001E460E9CC3464FF0000906E00A20BBFB16
:1015B000F0FB09F1010000F0FF09BBF1000FF5D1CC
:1015C000B14508DD1EA3224638460299FFF796FF73
:1015D00005B0BDE8F08F002553E0A6EB0900A84256
:1015E00032DD0F9860B104EBD471491001FB057135
:1015F00088B22346302200940299FFF718FF3EE09C
:1016000004EBD471491001FB057188B223462022F6
:1016100000940299FFF70BFF31E00000FE1F006C01
:10162000A88242423C000020B8BA00082CBF000843
:101630001CC50008380000203A00002040000020AF
:101640004552524F52000000701B401EC1B20A208A
:10165000FFF796FFB8FBF0F00A21B0FBF1F201FBB7
:10166000120A04EBD471491001FB057188B20AF12A
:101670003001CAB2234600940299FFF7D8FE681CD5
:10168000C5B2B542A9DB00BFA2E72DE9FF4F82B08A
:1016900004460D461646DDE91189109F0E48B0F844
:1016A00000A00E48B0F800B00B48A0F800800B482E
:1016B000A0F800900F98CDE9000732462946204651
:1016C000059BFFF768FF0448A0F800A00348A0F8B6
:1016D00000B006B0BDE8F08F380000203A000020CE
:1016E00010B500240020D0490860902000F0AAF92D
:1016F000002000F0A7F9002000F0A4F9002000F07D
:10170000A1F9FF2000F09EF944EA0024FF2000F038
:1017100099F904430120C549C1F8A002204610BD33
:101720001CB50121402003F0DFFA01208DF80400F0
:1017300000208DF8060003208DF8050001208DF8AB
:101740000700000200906946B94802F077FB0120CB
:10175000B549086000F08FF9082000F0E9F9FFF7BB
:10176000BFFFB44908801CBD10B500240020AE495D
:101770000860052000F066F9FF2000F063F90446D8
:101780000120AA49C1F8A002204610BD10B50446A8
:101790000020A5490860012000F054F9204600F01F
:1017A00051F90120A149C1F8A00210BD10B50020D7
:1017B0009D490860062000F045F901209B49C1F8C9
:1017C000A00210BD10B5002097490860042000F069
:1017D00039F901209549C1F8A00210BD2DE9F04169
:1017E00006460C46174600208F490860032000F08B
:1017F00029F9C4F3074000F025F9C4F3072000F0ED
:1018000021F9E0B200F01EF9002505E0FF2000F00C
:1018100019F97055681C85B2BD42F7DB0120824979
:101820000860BDE8F08110B500BFFFF79DFF00F034
:1018300001000028F9D110BD2DE9F04106460C4603
:101840001746FFF7B3FF002077490860022000F039
:10185000F9F8C4F3074000F0F5F8C4F3072000F0EE
:10186000F1F8E0B200F0EEF8002504E0705D00F061
:10187000E9F8681C85B2BD42F8DB01206A490860BE
:10188000FFF7D1FFBDE8F0812DE9F04107460E4694
:101890001446F0B2C0F58075AC4200DC254612E07B
:1018A0002A4631463846FFF7C7FFAC4200D10BE06D
:1018B0002F442E44601B84B2B4F5807F02DD4FF4C8
:1018C000807500E02546EBE700BFBDE8F08110B56C
:1018D0000446214658A009F035FD2403FFF766FFB2
:1018E000FFF7A1FF002050490860202000F0AAF86F
:1018F000C4F3074000F0A6F8C4F3072000F0A2F8F4
:10190000E0B200F09FF801204849C1F8A002FFF7BB
:101910008AFF10BD2DE9F05F81460F461646DFF8BD
:1019200020B14FEA1738C7F30B0ACAF58054A64214
:1019300000DC344644E04FEA08314FF48052584608
:10194000FFF74CFF002508E00AEB05001BF800003C
:10195000FF2800D003E0681C85B2A542F4DB00BF7D
:10196000A54216DA4046FFF7B2FF002507E019F856
:10197000050005EB0A010BF80100681C85B2A542C1
:10198000F5DB4FEA08314FF480525846FFF77CFFF1
:1019900004E0224639464846FFF776FFA64200D1CA
:1019A0000FE008F101084FF0000AA1442744301B62
:1019B00086B2B6F5805F02DD4FF4805400E0344615
:1019C000B9E700BFBDE8F09F10B5FFF7EFFEFFF7E6
:1019D0002AFF002014490860C72000F033F80120D6
:1019E0001249C1F8A002FFF71EFF10BD10B500207C
:1019F0000D490860B92000F025F801200B49C1F815
:101A0000A002032001F0F4FF10BD10B5002006492C
:101A10000860AB2000F016F801200449C1F8A002CC
:101A2000032001F0E5FF10BDA00243420000434245
:101A3000001802404A00002066653A25780D0A0029
:101A40002004002010B5044600BF0221414804F0E4
:101A500075FD0028F9D021463E4804F026FD00BF60
:101A600001213C4804F06AFD0028F9D0394804F00F
:101A700019FDC0B210BD00B587B00121022003F0EE
:101A800033F90121080303F089F938200590022079
:101A90008DF8180000208DF81A0003208DF8190029
:101AA00001208DF81B0005A92B4802F0C7F905227B
:101AB0000321294802F04DFA05220421264802F0AC
:101AC00048FA05221146244802F043FA012108038E
:101AD00003F0B9F900214FF4805003F0B4F900206D
:101AE000ADF800004FF48270ADF802000020ADF8B0
:101AF00004000220ADF806000120ADF80800400205
:101B0000ADF80A003820ADF80C000020ADF80E004A
:101B10000720ADF8100069460E4804F04BFB012188
:101B20000C4804F041FCFF20FFF78CFF07B000BD1C
:101B300010B50446074800884FF6C77108400549AC
:101B4000088008460088204308800121014804F0ED
:101B50002BFC10BD00300140000402400020FE4973
:101B60000860091D0860091D0860091D0860FA4920
:101B700024310860091D0860091D0860F748F6490E
:101B8000383108600020091D0860704701460020B8
:101B9000012900D011B9F24B197000E026207047DE
:101BA0000146ED4A121D106820F0FF000843106046
:101BB000704770B5044606E0E7483430056805F024
:101BC000450000B100E0F7E700BF042004F0AEFDDF
:101BD00020B1042004F0B5FD032070BD012004F005
:101BE000A5FD20B1012004F0ACFD0120F5E7DA48A5
:101BF00010300068A04201D01020EEE740F2FF5004
:101C000004F09FFDD4481430006808210840C0B299
:101C1000E3E72DE9FC4107460D460026002400209D
:101C2000009001900820CF490860102048604020B3
:101C300088600020C8604FF480600861084604F0A6
:101C4000E2FC1020FFF7B5FF044614B12046BDE8C2
:101C5000FC81C54800880004C249086037204860FC
:101C6000402088600020C8604FF48060086108460A
:101C700004F0C9FC3720FFF79CFF04460CB1204656
:101C8000E5E74FF0FF30B949086008204860302090
:101C900088600220C8600020086101204861084671
:101CA00004F0DDFC0020AF4908603320486040208C
:101CB00088600020C8604FF480600861084604F026
:101CC000A2FC3320FFF775FF04460CB12046BEE7A7
:101CD0000DE04FF4001004F029FD40B19E48803023
:101CE00000684DF82600761C022E00D307E09A48C3
:101CF0003430006840F22A6108400028E9D000BF73
:101D0000082004F013FD20B1082004F01AFD04207F
:101D10009DE7022004F00AFD20B1022004F011FD2D
:101D2000022094E7202004F001FD20B1202004F0DF
:101D300008FD06208BE74FF4007004F0F7FC28B193
:101D40004FF4007004F0FDFC072080E740F2FF50E4
:101D500004F0F7FC00980006009901F47F4140EA86
:101D60000120009901F47F0140EA1120009940EA26
:101D70001160686001980006019901F47F4140EA12
:101D80000120019901F47F0140EA1120019940EA04
:101D90001160286020465AE77CB5054600240020E3
:101DA0000090019000260DB1022600E000266A484E
:101DB0001430006800F0007008B10E207CBD6A4944
:101DC000098888B26946FFF724FF04460CB1204613
:101DD000F4E7019800F4802060B3634800880004B1
:101DE0006049086037204860402088600020C86053
:101DF0004FF480600861084604F005FC3720FFF7C7
:101E0000D8FE04460CB12046D8E7564806600620A6
:101E100054494860402088600020C8604FF48060CA
:101E20000861084604F0EFFB0620FFF7C2FE0446F7
:101E30002046C3E72520C1E770B5044600254C487D
:101E40000078032802D12725284670BD484800782D
:101E500038B147480078012803D045480078022867
:101E600019D1B4F5805F02D127252846EDE7E0B20D
:101E7000FFF792FF054675B93748001D006820F44A
:101E8000C0503549091D08600846006820430860B5
:101E90000846006808602846D7E710B50446314870
:101EA000046007202F494860402088600020C860F7
:101EB0004FF480600861084604F0A5FB0720FFF797
:101EC00078FE10BDF0B5014600200022284B1B789B
:101ED00081F85630244B1B88A1F85430254B1B68E1
:101EE0001A0E93090B70C2F383034B7002F00303C5
:101EF0008B70204B1B68C3F30742CA701D4B1B88B5
:101F0000C3F307220A711B4B1A784A715B681A0ED9
:101F10001301CB80174B5B68C3F30742CB8843EABE
:101F20001213CB8002F00F030B72124B9B88C3F38A
:101F30000722D3094B72C2F380138B72C2F3401392
:101F4000CB72C2F300130B7300234B73084B1B7847
:101F5000C3B1074B1B780FE0002C0140FF07C00006
:101F60005400002038140020500000204C140020A1
:101F70004C00002064140020012B03D0FE4B1B7882
:101F8000032B4FD193071B0D0B61FC4B1A790B6987
:101F900043EA82030B61F94B9B681A0E0B6943EA13
:101FA00092130B61C2F3C2030B7502F007034B756A
:101FB000F24B9B68C3F3074253098B75C2F382034C
:101FC000CB7593075B0F0B76EC4B1B89C3F3072292
:101FD0000B7E43EAD2130B760B695B1C0024C1E92C
:101FE00012340B7E9B1C012606FA03F3DE17D1E99F
:101FF0001245A4FB037C05FB03C304FB0633C1E9C4
:1020000012730C7A0123A3400B650024D1E9125608
:102010000B6DA5FB037C06FB03C305FB0433C1E981
:1020200012732CE0D44B1B78022B28D1D34B1A7996
:1020300093069B0A0B61D14B9B681A0E0B6943EA0E
:1020400002230B61CD4B9B68C3F307420B6913431B
:102050000B61CA4B1B89C3F307220B695B1C4FF44E
:102060000074A3FB043566000027A3FB064C05FBA8
:1020700006C503FB0753C1E9124373100B65C2F396
:10208000801301F8193F93065B0E4B70BB4B1A7A15
:102090004B7843EAD2134B7002F07F038B70B74B3F
:1020A000DB681A0ED309CB70C2F341130B71C2F374
:1020B00082034B7193071B0F8B71B04BDB68C3F32B
:1020C00007428B7943EA92138B71C2F34013CB71B1
:1020D00000230B7202F001034B72A84B9B89C3F3E0
:1020E0000722D3098B72C2F38013CB72C2F3401361
:1020F0000B73C2F300134B73C2F381038B7302F0B3
:102100000303CB739D4B1A7B53080B7401234B7451
:102110009B4B1B681A0ECA741939994B1B68C3F381
:1021200007421402CC85964B1B88C3F30722CB8D44
:102130001343CB85924B1A7814060C635B681A0E16
:102140000B6B43EA02440C638D4B5B68C3F307429D
:102150000B6B43EA02240C63894B9B88C3F3072271
:102160000B6B13430B63864B1A7934235A54844BFD
:102170009B681A0E35235A54814B9B68C3F3074260
:1021800014068C637E4B1B89C3F307228B6B43EAD7
:1021900002448C637A4B1A7A8B6B43EA02248C6379
:1021A000774BDB681A0E8B6B13438B63744BDB68C6
:1021B000C3F307423C235B5C43EA12143C235C54A8
:1021C00013071C0DCC876E4B9B89C3F30722CB8F63
:1021D0001343CB876A4B1A7B540840235C54012479
:1021E00041235C54F0BD70B500264FF4803505E006
:1021F0006448046804F0450000B103E0281EA5F11E
:102200000105F5D100BF15B104F0040028B1032683
:10221000042004F096FA304670BD012004F086FADE
:1022200018B10126012004F08CFA40F2FF5004F0AE
:1022300088FA3046F0E72DE9F04105460E464FF0AA
:10224000000805E04F48076807F0450000B100E0CE
:10225000F8E700BF042004F069FA28B1042004F074
:1022600070FA0320BDE8F081012004F05FFA20B18C
:10227000012004F066FA0120F4E74248243800689F
:10228000A84201D01020EDE740F2FF5004F059FAC7
:102290003C482038046804F4604018B9200C3080B1
:1022A0004046DFE704F4005008B11320DAE704F4F5
:1022B000804008B11020D5E704F4004008B10F2099
:1022C000D0E74046CEE738B500240120009004F066
:1022D00094F910B92524204638BD274800780428F1
:1022E00025D000202849086002204860C02088606E
:1022F0000020C8604FF480600861084604F083F94C
:10230000FFF771FF04460CB12046E5E71D48203871
:1023100000681B4908601B481C3800684860194861
:10232000183800688860174814380068C860124878
:10233000007858B110480078012807D00E4800787E
:10234000062803D00C480078022821D100200E492D
:10235000086003204860402088600020C8604FF477
:1023600080600861084604F04EF969460320FFF7D3
:1023700062FF044664B109E04C00002064140020B0
:1023800074140020342C0140381400202046A3E7A8
:10239000FE480078032816D1BDF800000004FC496F
:1023A000086003204860402088600020C8604FF427
:1023B00080600861084604F026F9FFF714FF044620
:1023C0000CB1204688E7F148007804282AD0BDF8EF
:1023D0000000F0490860BDF800000004EC49086006
:1023E00009204860C02088600020C8604FF48060E9
:1023F0000861084604F007F9FFF7F5FE04460CB142
:10240000204669E7E4480068E4490860E248001DA6
:1024100000684860E048083000688860DE480C309A
:102420000068C860002057E710B506E0DA482030A1
:10243000046804F0450000B100E0F7E700BF0420A5
:1024400004F074F920B1042004F07BF9032010BDDE
:1024500040F2FF5004F075F90020F8E770B500264F
:102460004FF4803506E0CC482030046804F0450085
:1024700000B103E0281EA5F10105F4D100BF15B19C
:1024800004F0040028B10326042004F05AF9304671
:1024900070BD04F0400018B10026402004F051F94E
:1024A0003046F5E770B500254FF4803404E0802015
:1024B00004F03CF900B103E0201EA4F10104F6D1C0
:1024C00000BF0CB9032070BD40F2FF5004F039F991
:1024D0002846F8E72DE9F0470027002400260025CC
:1024E000A046A1467620AE490875002008604860E5
:1024F0008860C8600861084604F05BF8032004F0B7
:1025000078F8A5481038006840F48070A249103966
:10251000086000BF12E000209D49086048608860A4
:10252000C8604FF480600861084604F06CF8FFF75B
:10253000B9FF044604B903E0781CC7B24A2FEADBAE
:1025400000BF14B12046BDE8F0874FF4D570904924
:10255000086008204860402088600020C8604FF470
:1025600080600861084604F04EF8FFF777FF0446E4
:1025700024B90120854908704FF080490020844922
:10258000086037204860402088600020C8604FF411
:1025900080600861084604F036F83720FFF709FB31
:1025A0000446002C4BD134E00020794908603720E4
:1025B0004860402088600020C8604FF48060086157
:1025C000084604F020F83720FFF7F3FA04460CB170
:1025D0002046B8E7734849EA00006D4908602920A1
:1025E0004860402088600020C8604FF48060086127
:1025F000084604F008F8FFF717FF04460CB1204620
:10260000A1E765480668012080EAD67080F00108DD
:102610006D1CB8F1000F03D14FF6FF708542C3D394
:102620004FF6FF70854202D31B2420468BE706F04D
:102630008040061E32D00220544908702EE01CE073
:1026400059485349086001204860402088600020B4
:10265000C8604FF480600861084603F0D4FFFFF7BC
:10266000E3FE04460CB120466DE74B4806680120A6
:1026700080EAD67080F001086D1CB8F1000F03D11C
:102680004FF6FF708542DBD34FF6FF70854202D3D1
:102690001B24204657E703203C490870204652E798
:1026A0003EB5002400250121404802F01DFB012118
:1026B000C80202F073FB0121C80202F0C4FB4FF410
:1026C000F850019002208DF808008DF809000020D4
:1026D0008DF80A0001208DF80B0001A9344801F0A3
:1026E000ADFB0420019001A9324801F0A7FB0C22A8
:1026F00008212F4801F02DFC0C2209212C4801F063
:1027000028FC0C220A212A4801F023FC0C220B2170
:10271000274801F01EFC0C221146254801F019FC47
:102720000C220221234801F014FC00214FF4006028
:1027300002F089FBFFF712FA31208DF8000000202B
:102740008DF801008DF8020001208DF80300684625
:1027500001F083FAFFF7BEFE044614B9FFF7B3FD9C
:1027600004461CB91448FFF7ADFB044634B91249BE
:10277000B1F854100804FFF790FB044624B94FF455
:102780000060FFF759FB0446E4B117E04C0000205D
:102790003814002050000020142C01406414002044
:1027A00020140020000010800080FF800C004000FA
:1027B00000080240000C024088140020FE48007807
:1027C000032812D1FD4890F8560020B1FB4890F83C
:1027D0005600012801D1022500E000252846FFF718
:1027E000DFF90020FFF7D2F9044620463EBD10B5C0
:1027F000002003F0FEFE002010BD70B590B004462E
:102800000E46154600BFEE4801F0E9FF0028FAD158
:10281000EB4801F0BBFE4FF000600190E9480290E8
:10282000039404950020059006904FF48060079073
:10283000800008908000099000200A904FF44030FA
:102840000B9004200C9003200D904FF400000E908C
:1028500080100F9001A9DA4801F03AFF2021D848F2
:1028600001F086FF0121D64801F06CFF10B070BD69
:102870000146002002E04910421CD0B20129FAD1E1
:1028800070472DE9F84F8146174698460A9C4FF04D
:10289000000AD3464D464FF0FF36B9F1000F02D182
:1028A0002620BDE8F88F0020C64954390860C24888
:1028B0000078022805D10402780A40EAC8574FEA96
:1028C00068280020C04988604860401E08600120D8
:1028D00048610020C8600861084603F0C0FEB9489E
:1028E0006C38006800F0007008B10E20D9E7002CA9
:1028F00021DDB4F5006F1EDC601E2040D8B92046F3
:10290000FFF7B6FF0090B14804601020AF4948605F
:10291000402088600020C8604FF48060086108464D
:1029200003F071FE1020FFF744F98246BAF1000F60
:1029300003D05046B5E72620B3E700980001A2492E
:102940008860084644604FF0FF300860012048610D
:102950000220C86000200861084603F080FE9B4802
:102960000760112099494860402088600020C860B5
:102970004FF480600861084603F045FE1120FFF720
:1029800018F98246BAF1000F01D0504689E7904805
:10299000007800285AD1FDF778FC17E04FF400408A
:1029A00003F0C4FE70B14FF0000B05E085480068ED
:1029B00045F82B000BF1010BBBF1080FF6D32035C6
:1029C000844E03E00EB904206BE7761E7D484C3838
:1029D000006840F22A6108400028DFD0082003F098
:1029E000A5FE20B1082003F0ACFE042059E7022028
:1029F00003F09CFE20B1022003F0A3FE022050E76A
:102A0000202003F093FE20B1202003F09AFE062040
:102A100047E74FF4007003F089FE28B14FF40070CF
:102A200003F08FFE07203CE703E06648006828605B
:102A30002D1D4FF4001003F079FE0028F5D1FDF7AD
:102A400026FC40F2FF5003F07CFE39E0604800783D
:102A5000012835D10020604908706049087060493C
:102A6000087058484438006840F22A3108435549F4
:102A70004439086053485438006840F00800514910
:102A800054390860002221464846FFF7B6FE00E0B0
:102A9000761E4B485838006800F0006038B950483E
:102AA000007820B94C48007808B9002EF0D10EB952
:102AB0000420F6E64848007810B1474890F800A096
:102AC0005046EEE62DE9FF5F17469846DDE90E46D3
:102AD0004FF00009CA464FF0FF35424900980860A0
:102AE000002038495439086033480078022805D15D
:102AF0000402780A40EAC8574FEA682800203249A1
:102B000088604860401E0860012048610020C8605D
:102B10000861084603F0A3FD2A486C38006800F0FD
:102B2000007018B10E2004B0BDE8F09F002C21DD2C
:102B3000B4F5006F1EDC601E2040D8B92046FFF7B8
:102B400097FE8346214804601020204948604020B9
:102B500088600020C8604FF480600861084603F078
:102B600052FD1020FFF725F88146B9F1000F03D080
:102B70004846D8E72620D6E7012E6ED906FB04F09A
:102B8000B0F1007F01D32620CDE74FEA0B100E49AC
:102B9000886006FB04F048604FF0FF3008600120B9
:102BA00048610220C86000200861084603F057FD14
:102BB00006480760122017E04C000020881400200F
:102BC00058640240802C01404C140020381400202E
:102BD00054000020FFFF7F00560000205500002019
:102BE0005700002058000020F949486040208860C4
:102BF0000020C8604FF480600861084603F003FDC0
:102C00001220FEF7D6FF8146B9F1000F01D04846E9
:102C100089E7F048007800287ED1FDF736FB1EE0FA
:102C20004FF4004003F082FDA0B14FF0000A07E02E
:102C3000E9480068E949096841F82A000AF1010AEF
:102C4000BAF1080FF4D3E54800682030E349086082
:102C5000E34D04E015B9042065E7AEE06D1EDE48E3
:102C60004C38006840F22A3108400028D8D00820AB
:102C700003F05CFD20B1082003F063FD042052E75F
:102C8000022003F053FD20B1022003F05AFD022080
:102C900049E7202003F04AFD20B1202003F051FD38
:102CA000062040E74FF4007003F040FD28B14FF4D8
:102CB000007003F046FD072035E709E0C6480068CC
:102CC000C64909680860C5480068001DC349086016
:102CD0004FF4001003F02AFD0028EFD14FF480706C
:102CE00003F024FD20B3BF48007838B1BD48007818
:102CF000012803D0BB480078022819D10020B4492C
:102D000008600C204860402088600020C8604FF4B4
:102D100080600861084600E011E003F074FC0C20BC
:102D2000FEF747FF8146B9F1000F01D04846FAE6A9
:102D3000FDF7ADFA40F2FF5003F003FD3DE0A5487A
:102D40000078012839D10020A74908700120A7493F
:102D500008700020A64908709F484438006840F277
:102D60002A3108439C49443908609B48543800681C
:102D700040F0080098495439086006FB04F100222D
:102D80000098FFF73AFD00E06D1E9A48006800F0D9
:102D9000006008B9002DF7D10DB90420C3E600BFCB
:102DA0009348007818B9904800780028F8D08E48E9
:102DB000007810B18C4890F800904846B3E61CB5F6
:102DC00004460020019000908B4800880004804950
:102DD00008600D204860402088600020C8604FF4E3
:102DE00080600861084603F00EFC7B484C380068A0
:102DF000009003E078484C3800680090009800F09C
:102E000045000028F6D0012003F090FC20B10120FD
:102E100003F097FC01201CBD042003F087FC20B1C7
:102E2000042003F08EFC0320F5E76B48703800683F
:102E30000D2801D01020EEE740F2FF5003F081FC96
:102E400065486C38006801900198C0F343202070F9
:102E50000020E0E72DE9FF5F86B017469846149DF5
:102E600000260020059004900024814603908246AD
:102E700002900195DDF818B0DDF818B0BBF1000F35
:102E800003D126200AB0BDE8F09F002052495439F2
:102E900008605A4988604860401E08600120486107
:102EA0000020C8600861084603F0D9FB4A486C3826
:102EB000006800F0007008B10E20E3E74948007890
:102EC000022805D10502780A40EAC8574FEA682867
:102ED000002D1FDDB5F5006F1CDC681E2840C8B949
:102EE0002846FFF7C5FC0590394805601020384991
:102EF0004860402088600020C8604FF4806008610E
:102F0000084603F080FB1020FEF753FE06461EB174
:102F10003046B7E72620B5E73748008800042C493B
:102F200008600D204860402088600020C8604FF491
:102F300080600861084603F066FB0D20FEF739FE4D
:102F400006460EB130469DE723486C380068039072
:102F50004FF0FF341CE0641E2748008800041C4921
:102F600008600D204860402088600020C8604FF451
:102F700080600861084603F046FB0D20FEF719FE4D
:102F800006460EB130467DE713486C380068039062
:102F9000039800F4807008B9002CDCD10CB929200A
:102FA00070E70B4807601820094948604020886096
:102FB0000020C8604FF480600861084603F023FBDE
:102FC0001820FEF7F6FD0646D6B130465AE7000057
:102FD0003814002054000020802C014058000020AC
:102FE000FFFF7F004C00002056000020550000200D
:102FF0005700002000640240500000204C140020C4
:103000000020F849087005980001F74988600846D3
:1030100045604FF0FF300860012048610020C86023
:103020000861084603F01BFB4FF0FF34EF480078BF
:1030300000287CD1FDF729F943E04FF4804003F0EC
:1030400075FBC8B30198A0EB0900202821D2019894
:10305000A0EB090000F0030020B90198A0EB0900E3
:10306000800804E00198A0EB09008008401C029051
:103070004FF0000A09E0DE49DBF8000008600AF1C1
:10308000010A0BF1040B09F1040902988245F2D3FD
:103090000FE04FF0000A05E05BF82A00D449086011
:1030A0000AF1010ABAF1080FF6D30BF1200B09F16E
:1030B00020096FF0404404E0FFE70CB90420E1E68A
:1030C000641ECB484C38006840F21A610840002862
:1030D000B3D0082003F02AFB20B1082003F031FB15
:1030E0000420CFE6022003F021FB20B1022003F0F0
:1030F00028FB0220C6E6102003F018FB20B11020A8
:1031000003F01FFB0520BDE64FF4007003F00EFB3B
:1031100030B14FF4007003F014FB0720B2E606E074
:10312000FDF7B5F840F2FF5003F00BFB43E0AF486A
:10313000007801283FD10020AE490870A9490870E5
:10314000AD490870AA484438006840F21A31084373
:10315000A74944390860402229460698FFF74DFBED
:10316000A3485438006840F00800A1495439086069
:1031700000E0641EA148006800F0006008B9002C5F
:10318000F7D11CB9FFF78CFA04207BE64FF0FF342F
:1031900000E0641E9848007820B99648007808B985
:1031A000002CF6D10CB904206CE69248007810B1DE
:1031B0009048007866E640F2FF5003F0C2FA04A897
:1031C000FFF7FDFD064603E004A8FFF7F8FD0646FD
:1031D0003EB99DF810000728F6D09DF8100006288B
:1031E000F2D030464EE62DE9FF5F84B0DDE91247AC
:1031F0000026002003900290002580468146019021
:1032000007FB04FBDDF810A0DDF810A0BAF1000FF9
:1032100003D1262008B0BDE8F09F0020744954393E
:103220000860714988604860401E0860012048615C
:103230000020C8600861084603F011FA6C486C3839
:10324000006800F0007008B10E20E3E76C480078D9
:10325000022808D10402DDE90601400A40EAC15013
:103260004912CDE90601002C1FDDB4F5006F1CDC0E
:10327000601E2040C8B92046FFF7FAFA0390614863
:10328000046010205F494860402088600020C860CA
:103290004FF480600861084603F0B5F91020FEF78E
:1032A00088FC06461EB13046B4E72620B2E7012F5F
:1032B0006FD907FB04F0B0F1007F01D32620A9E706
:1032C0004F48007838B14E480078012803D04C4868
:1032D000007802282DD14C48008800044949086034
:1032E00037204860402088600020C8604FF480602C
:1032F0000861084603F087F93720FEF75AFC0646B6
:103300000EB1304686E73F48076017203D494860C8
:10331000402088600020C8604FF480600861084643
:1033200003F071F91720FEF744FC06460EB1304653
:1033300070E734490698086019204860402088608A
:103340000020C8604FF480600861084603F05BF914
:103350001920FEF72EFC06460EB130465AE70398B8
:1033600000012149886007FB04F048604FF0FF30FE
:103370000860012048610020C8600861084603F029
:103380006EF91A480078002872D1451EFCF77DFFBF
:1033900054E0F8E04FF4804003F0C8F9B0B3ABEB71
:1033A0000800202833D2ABEB080000F0030018B966
:1033B000ABEB0800800803E0ABEB08008008401C82
:1033C00001904FF0000909E00949DAF800000860AF
:1033D00009F101090AF1040A08F10408019881457C
:1033E000F2D324E0550000204C14002054000020AB
:1033F000802C01405600002057000020006402404D
:103400004C000020381400205000002012E04FF043
:10341000000905E05AF82900F749086009F1010997
:10342000B9F1080FF6D30AF1200A08F120086FF06D
:10343000404503E00DB90420ECE66D1EEE484C3823
:10344000006840F21A3108400028A3D0082003F099
:103450006DF920B1082003F074F90420DAE60220A7
:1034600003F064F928B1022003F06BF90220D1E6E1
:1034700040E0102003F05AF920B1102003F061F968
:103480000520C7E64FF4007003F050F928B14FF45F
:10349000007003F056F90720BCE64FF4807003F08B
:1034A00045F900B3D548007838B1D44800780128F0
:1034B00003D0D2480078022815D10020D0490860F6
:1034C0000C204860402088600020C8604FF4806075
:1034D0000861084603F097F80C20FEF76AFB0646E1
:1034E0000EB1304696E6FCF7D2FE40F2FF5003F0F4
:1034F00028F948E0C3480078012844D10020C24997
:1035000008700120C14908700020C1490870BA48FC
:103510004438006840F21A310843B749443908601A
:1035200007FB04F140220498FFF767F9B2485438CA
:10353000006840F00800B049543908604FF0FF358A
:1035400000E06D1EB348006800F0006008B9002D6F
:10355000F7D11DB9FFF7A4F804205BE64FF0FF3563
:1035600000E06D1EAA48007820B9A748007808B985
:10357000002DF6D10DB904204CE6A348007810B117
:10358000A148007846E640F2FF5003F0DAF802A8BE
:10359000FFF715FC064603E002A8FFF710FC0646FD
:1035A0003EB99DF808000728F6D09DF808000628C7
:1035B000F2D030462EE610B54FF4807003F0B6F826
:1035C00088B392480078012814D100208C49086003
:1035D0000C204860402088600020C8604FF4806064
:1035E0000861084603F00FF80C20FEF7E2FA86495E
:1035F000087002E00020844908707F48483800685D
:1036000040F480707C4948390860081D00684CF21D
:103610003A31884378494439086001207C49087070
:103620007948007810BDFFE7022003F07FF878B1F9
:10363000022003F086F87048443800684CF23A31B2
:1036400088436D494439086002206F490870E9E7F2
:10365000082003F06BF878B1082003F072F8664890
:10366000443800684CF23A31884363494439086071
:10367000042065490870D5E7202003F057F878B199
:10368000202003F05EF85C48443800684CF23A3180
:10369000884359494439086006205B490870C1E7EE
:1036A000102003F043F878B1102003F04AF8524894
:1036B000443800684CF23A3188434F494439086035
:1036C000052051490870ADE74FF4007003F02EF863
:1036D00080B14FF4007003F034F847484438006874
:1036E0004CF23A318843444944390860072046493E
:1036F000087097E7002095E710B5FFF75CFF10BD55
:1037000070B50446002514B92625284670BD4248E8
:10371000008800043A4908600D2048604020886015
:103720000020C8604FF480600861084602F06BFF1B
:103730000D20FEF73EFA05460DB12846E6E72E4875
:103740006C38006820602846E0E708B5002000904B
:103750006846FFF7D5FF08B1FF2008BD0098C0F309
:103760004320FAE72DE9FE4F83460C4691460020A0
:103770000290002625462C46700240EAD5566D027E
:103780000BF00300F0B14FF0000A18E04FF40070A6
:1037900000904FEA4A20471946EBE0733A461F482B
:1037A000FFF76FF802904FF400721C49584607F07B
:1037B00075FF0BF5007B0AF1010000F0FF0ACA4516
:1037C000E4DB16E0B9F1010F09D14FF400702A468D
:1037D000334600905846FFF754F8029009E04FF442
:1037E00000702A463346CDE900095846FFF76AF9CA
:1037F00002900298BDE8FE8F802C01404C00002012
:1038000038140020540000205600002055000020ED
:10381000570000200064024050000020E014002007
:103820002DE9FE4F81460C4692460020029000266C
:1038300025462C46700240EAD5566D0209F0030079
:10384000F0B14FF0000B18E04FF4007249461948F0
:1038500007F024FF4FF4007000904FEA4B20471907
:1038600046EBE0733A461348FFF7F4FA029009F585
:1038700000790BF1010000F0FF0BD345E4DB16E00B
:10388000BAF1010F09D14FF400702A463346009077
:103890004846FFF7DFFA029009E04FF400702A462D
:1038A0003346CDE9000A4846FFF79DFC0290029896
:1038B000BDE8FE8FE014002000201F49086048602A
:1038C0008860704701461C488068B0F5C05F01D32E
:1038D00001207047184842680C3081540C38406809
:1038E000401C4FF4C052B0FBF2F302FB1300124A2B
:1038F000506010468068401C90600020E9E7014657
:103900000D48806808B9012070470B4802680C30E8
:10391000805C087008480068401C4FF4C052B0FB3F
:10392000F2F302FB1300044A106010468068401E48
:1039300090600020E8E70000E01600200EB5FCF7DC
:10394000B1FE0121880301F029FA0921052001F0C7
:1039500030FB4FF40070009000208DF804000C2024
:103960008DF8050001208DF80600684602F012FF70
:1039700017208DF8080001208DF8090002208DF82D
:103980000A0001208DF80B0002A800F066F90EBDB8
:1039900010B50A2000F074F84FF40071054800F0EB
:1039A000AFFA10B90120044908704FF4007002F01A
:1039B00062FF10BD001402400800002010B504464C
:1039C0006FF0040000F096F9E11704EB5171C1F3B8
:1039D000C701394A11701046007800EB4001C1EB75
:1039E000C0104FF6FF7101EAC0003449088010BDD5
:1039F0000146314A12784A434FF0E0235A610022CF
:103A00009A611A46126942F001021A6100BF4FF032
:103A1000E022106900F001021AB100F48032002A9D
:103A2000F5D04FF0E022126922F001024FF0E023BE
:103A30001A6100229A6170470146204A12884A435F
:103A40004FF0E0235A6100229A611A46126942F04F
:103A500001021A6100BF4FF0E022106900F001027C
:103A60001AB100F48032002AF5D04FF0E02212693A
:103A700022F001024FF0E0231A6100229A617047A0
:103A800070B504464FF4077094FBF0F0C6B24FF4E3
:103A9000077094FBF0F100FB114085B205E04FF494
:103AA0000770FFF7C9FF701EC6B2002EF7D115B11F
:103AB0002846FFF7C1FF70BD5C0000205E000020BB
:103AC00000BF704700BF4D4A128802F04002002A32
:103AD000F9D0C2B2494B1B1D1A80704710B588B08F
:103AE00004460121084601F0FFF80121102001F0F1
:103AF00055F907220921424800F02BFA07220A2132
:103B00003F4800F026FA4FF4C060069002208DF87E
:103B10001C008DF81D0000208DF81E0001208DF87E
:103B20001F0006A9364800F089F902940020ADF87C
:103B30000C00ADF80E00ADF81000ADF814000C202C
:103B4000ADF8120002A92F4801F0D3FA01212D4847
:103B500001F057FB012240F225512A4801F007FCF1
:103B600025208DF8040003208DF805008DF806004F
:103B700001208DF8070001A800F06FF808B010BD13
:103B800010B540F225511F4801F02CFC10B31D4820
:103B900001F066FBC4B21C48008800F40040C8B9BC
:103BA0001948008800F4804060B10A2C03D000203E
:103BB0001549088020E01448008840F4004012496C
:103BC000088019E00D2C06D10F48008840F4804091
:103BD0000D49088010E00C480088C0F30D000B4927
:103BE0000C5409480088401C074908800846008892
:103BF000C72801DD0020088010BD000000440040FF
:103C0000000002400010014064000020EC2E002063
:103C10000948804709480047FEE7FEE7FEE7FEE760
:103C2000FEE7FEE7FEE7FEE7FEE7FEE7044805499C
:103C3000054A064B70470000190500088901000875
:103C400000AF012000B5012000B1012000B101202A
:103C500032490143324A1160704770B50021002398
:103C60000F22C4781CB32E4C246804F4E064C4F51D
:103C7000E064C4F30721C1F10404E3B20A414478CB
:103C80009C40E1B28478144021430C07210E254C5E
:103C900005786155047804F01F050124AC400578CF
:103CA0006D11AD0005F1E025C5F8004109E004788B
:103CB00004F01F050124AC401B4D0678761145F831
:103CC000264070BD194A0A400243154B1B1F1A605B
:103CD000704739B1124A121D12680243104B1B1D66
:103CE0001A6006E00E4A121D126882430C4B1B1D1F
:103CF0001A607047042808D14FF0E021096941F0AB
:103D000004014FF0E022116107E04FF0E021096962
:103D100021F004014FF0E022116170470000FA0524
:103D20000CED00E000E400E080E100E080FFFF1F18
:103D300010B504469848844208D10121084601F094
:103D40003EF80021012001F03AF876E093488442E1
:103D500008D10121022001F032F80021022001F0F7
:103D60002EF86AE08E48844208D10121042001F037
:103D700026F80021042001F022F85EE08948844200
:103D800008D10121082001F01AF80021082001F0D3
:103D900016F852E08448844208D10121102001F035
:103DA0000EF80021102001F00AF846E07F48844216
:103DB00008D10121202001F002F80021202000F08C
:103DC000FEFF3AE07A48844208D10121402000F009
:103DD000F6FF0021402000F0F2FF2EE075488442FB
:103DE00008D10121802000F0EAFF0021802000F0AE
:103DF000E6FF22E07048844208D10121801500F0DE
:103E0000DEFF0021A01500F0DAFF16E06B488442C7
:103E100008D10121401500F0D2FF0021601500F00B
:103E2000CEFF0AE06648844207D10121001500F068
:103E3000C6FF0021201500F0C2FF10BDF0B50A46F4
:103E400000210023002400BF3DE0012505FA01F315
:103E5000156805EA03049C4234D105684F00032627
:103E6000BE40B543056015794E00B5400668354340
:103E700005601579012D02D01579022D16D18568BE
:103E80004F000326BE40B543856055794E00B540CE
:103E9000866835438560456801268E40B543456098
:103EA000456896798E40B6B235434560C5684F0087
:103EB0000326BE40B543C560D5794E00B540C668FF
:103EC0003543C560491C1029BFD3F0BD4FF6FF71C3
:103ED00001600021017141718171C171704708B5A4
:103EE0004FF480320092009A0A430092009AC26115
:103EF000C161009AC261C2690092C269009208BDA4
:103F00000246002013690B400BB1012000E00020A5
:103F100070470146086980B2704702460020536925
:103F20000B400BB1012000E00020704701464869BA
:103F300080B2704701837047418370470AB10183A3
:103F400000E0418370474161704742694A404261E5
:103F50007047F0B5002300244D07ED0E02FA05F37B
:103F6000CE1000F1200555F826504E07F70E0F260B
:103F7000BE40B543CF1000F1200646F82750CE10C2
:103F800000F1200555F8265045EA0304CE1000F153
:103F9000200545F82640F0BD000002400004024024
:103FA00000080240000C02400010024000140240D1
:103FB00000180240001C0240002002400024024081
:103FC0000028024030B943F2DB028100A1F1C04178
:103FD0000A6005E043F2D2028100A1F1C0410A600B
:103FE0006FF07042411C8900A1F1C0410A6081005C
:103FF000A1F1C041C1F804217047D0E90112114379
:10400000C268114302691143426911438269114335
:10401000C2691143026A1143426A1143826A114321
:10402000C26A1143026B114302689200A2F1C042BE
:104030001160816808290BD101688900A1F1C04194
:10404000096841F0400201688900A1F1C0410A609D
:10405000416B0968426B526841EA0211426B9268F7
:1040600041EA0221426B928941EA0241426B128A83
:1040700041EA0251426B127D41EA0261426B926950
:1040800011430268521C9200A2F1C0421160C16A41
:10409000B1F5804F1BD1816B0968826B526841EA90
:1040A0000211826B926841EA0221826B128A41EA14
:1040B0000251826B127D41EA0261826B9269114367
:1040C00002689200A2F1C042C2F8041107E06FF04A
:1040D000704201688900A1F1C041C1F80421704714
:1040E000002101600221416000218160C160016105
:1040F00041618161C16101624FF4805141624900B7
:1041000081620021C1620163F849416381637047A4
:1041100051B18200A2F1C042126842F00103820054
:10412000A2F1C042136009E08200A2F1C04212680D
:10413000EF4B1A408300A3F1C0431A607047102868
:104140000AD118214FF020421166402151664FF0EC
:10415000FC319166D16610E01821E64A11604021D9
:104160004FF02042C2F884104FF0FC31E14A08328F
:1041700011604FF02042C2F88C10704730B500211A
:1041800000220023446844F0080485682C43C56875
:104190002C4305692C43456944EA4524856944EA72
:1041A0004531C4692468C5696D6844EA0524C56958
:1041B0002D8944EA0544C5692D7B44EA0562046AF9
:1041C0002468056A6D6844EA0524056A2D8944EA75
:1041D0000544056A2D7B44EA05630468102C05D16B
:1041E0004FF020442166A266E36608E0C14C2160DE
:1041F0004FF02044C4F88820BE4C0C34236030BDFE
:1042000010210160002141608160C1600161416154
:104210008161FC21C2691160C2695160C26991600B
:10422000C269D160026A1160026A5160026A9160DB
:10423000026AD160704799B1102808D14FF020422E
:10424000126E42F004024FF020431A661DE0A94AA4
:10425000126842F004024FF02043C3F8802014E0BB
:10426000102809D14FF02042126EA14BDB1E1A40DC
:104270004FF020431A6608E09E4A12689C4BDB1EF2
:104280001A404FF02043C3F88020704799B110289E
:1042900008D14FF02042126E42F040024FF020430E
:1042A0001A661DE0934A126842F040024FF0204324
:1042B000C3F8802014E0102809D14FF02042126E7C
:1042C0008B4B3F3B1A404FF020431A6608E0894A67
:1042D0001268874B3F3B1A404FF02043C3F88020C1
:1042E000704701460020102903D14FF02042506F43
:1042F00002E0804A14321068704718207D4920314E
:10430000086000200906C1F8A4004FF0FC3079498C
:1043100028310860091D0860091D086070470168A0
:1043200041F01001426841EA4221826841EA42318B
:10433000704A20321160C1680968C268526841EA57
:104340000221C268128941EA0241C268127B41EA35
:104350000261684A2832116001690968026952687D
:1043600041EA02210269128941EA02410269127B93
:1043700041EA02615F4A2C32116041690968426971
:10438000526841EA02214269128941EA02414269C6
:10439000127B41EA02614FF02042C2F8B010704730
:1043A0000021016041608160FC21C2681160C26827
:1043B0005160C2689160C268D1600269116002698F
:1043C0005160026991600269D1604269116042697D
:1043D0005160426991604269D160704748B1454976
:1043E0002031096841F004014FF02042C2F8A010CA
:1043F00009E04049203109683D4AD21E11404FF082
:104400002042C2F8A010704710B5F2B1102807D1B1
:104410004FF020435B6E0B434FF02044636632E065
:10442000B0F5807F08D1334B1B1D1B680B434FF049
:104430002044C4F8843026E02E4B24331B680B4301
:104440004FF02044C4F8A4301DE0102807D14FF0ED
:1044500020435B6E8B434FF02044636613E0B0F55E
:10446000807F08D1234B1B1D1B688B434FF02044DA
:10447000C4F8843007E01F4B24331B688B434FF094
:104480002044C4F8A43010BD10B50246002000231B
:10449000102A03D14FF02044636E09E0B2F5807F0B
:1044A00003D1144C241D236802E0124C24342368E9
:1044B00003EA01040CB1012000E0002010BD102827
:1044C00007D14FF02042526E8A434FF020435A6684
:1044D00019E0B0F5807F0FD1064A121D12688A4399
:1044E0004FF02043C3F884200DE00000ECD6000814
:1044F000FEFF0F00800000A0234A12688A434FF09D
:104500002043C3F8A420704770B502460020002362
:1045100000240025102A03D14FF02046736E08E0D6
:10452000B2F5807F03D1184E203E336801E0164E6D
:10453000336803EA010403EAD10514B10DB1012087
:1045400000E0002070BD102808D14FF02042526ECC
:1045500022EAD1024FF020435A6614E0B0F5807F82
:1045600009D1094A203A126822EAD1024FF02043C9
:10457000C3F8842007E0044A126822EAD1024FF00F
:104580002043C3F8A4207047A40000A0016821F0D4
:10459000010101600021016041608160C160016131
:1045A00021214161DB49884204D13D21D94A103A99
:1045B00091608CE0D7491831884205D14FF474617D
:1045C000D44A103A916082E0D2493031884205D114
:1045D0004FF47411CF4A103A916078E0CD494831D8
:1045E000884205D14FF07461CA4A103A91606EE07A
:1045F000C8496031884204D1C749C64A103AD160DF
:1046000065E0C4497831884204D1C449C14A103AAE
:10461000D1605CE0BF499031884204D1C049BD4AB5
:10462000103AD16053E0BB49A831884205D14FF020
:104630003D51B84A103AD16049E0BA49884204D1A4
:104640003D21B84A083A116041E0B6491831884224
:1046500005D14FF47461B34A083A116037E0B149AB
:104660003031884205D14FF47411AE4A083A1160D6
:104670002DE0AC494831884205D14FF07461A94A18
:10468000083A116023E0A7496031884204D1A24969
:10469000A44A121F11601AE0A2497831884204D15D
:1046A0009E49A04A121F116011E09E499031884234
:1046B00004D19B499B4A121F116008E09949A83117
:1046C000884204D14FF03D51964A121F1160704745
:1046D00010B500220268944B1A40CC680B68234343
:1046E0004C6923438C692343CC6923430C6A2343DD
:1046F0004C6A23438C6A23434C6B23438C6B2343C8
:104700001A430260426922F00702D1E90B342343C5
:104710001A4342610B6943604B6883608B68C360D6
:1047200010BD0021016041608160C1600161416193
:104730008161C161016241628162C1620163416361
:104740008163704721B1026842F00102026003E018
:10475000026822F001020260704721B1026842F44F
:104760000042026003E0026822F4004202607047E7
:1047700021B1026842F02002026003E0026822F0E8
:10478000200202607047416070470146486880B26D
:10479000704722B1036843F40023036003E0036819
:1047A00023F4002303600161704721B1026842F4E1
:1047B0008022026003E0026822F4802202607047D7
:1047C0000AB1016100E0C1607047014600200A683B
:1047D00002F400220AB1012000E0002070470146E7
:1047E00000200A6802F001020AB1012000E0002066
:1047F0007047014600204A6902F03800704730B522
:1048000003460A4600200024464DAB4202D24149ED
:10481000103901E04349103902F000550DB14C68E0
:1048200000E00C68414D2C4004EA02050DB1012066
:1048300000E0002030BD02463A4B9A4202D2354891
:10484000103801E03748103801F000531BB1374BE6
:104850000B40C36002E0354B0B408360704710B5DE
:1048600001F080034BB122B1436943F080034361FF
:1048700003E0436923F08003436180290BD02AB110
:10488000036801F01E042343036004E0036801F0A1
:104890001E04A343036010BD70B50246002000242F
:1048A0000025204EB24202D21A4B103B01E01D4BB4
:1048B000103B1F4E0E4036B11E2606EAD124166864
:1048C00006EA040502E0566906F0800501F000568C
:1048D0000EB15C6800E01C68144E344004EA010626
:1048E00016B10DB1012000E0002070BD02460D4B55
:1048F0009A4202D20748103801E00A48103801F005
:1049000000531BB1094B0B40C36002E0074B0B4047
:1049100083607047106002403D000020400F00207F
:1049200000003D20106402403F801CF07D0F7D0F91
:104930003C0F3C0FF948006840F00100F74908605F
:104940000020F64908310860F4480068F44908403E
:10495000F2490860F348091D0860F348EF498431C3
:104960000860F0481038091D0860EC48006820F421
:104970008020EA4908600020E8490C310860E749D6
:104980008C31086070470021E44A921C1170114676
:104990000870704710B501460022002300204A111C
:1049A000012A02D1DD4C236808E0022A03D1DB4C46
:1049B0007034236802E0D94C7434236801F01F027C
:1049C000012494401C400CB1012000E0002010BDE7
:1049D00038B5002000900024002500BF3120FFF7EB
:1049E000D9FF05460098401C00900098B0F5A04FF4
:1049F00001D0002DF2D03120FFF7CCFF08B1012407
:104A000000E00024204638BD01460020C34A10685B
:104A100020F0F80040EAC10010607047C349086008
:104A200070470021BD4A703211701170012802D008
:104A300004280AD104E00121B84A7032117005E05F
:104A40000521B64A7032117000E000BF00BF704708
:104A5000B7490860704770B5049C41EA8215012689
:104A6000C6EB530645EA0645054345EA0465AB4EE9
:104A7000361D356070BDAD4908667047820142EA57
:104A80000172A64B84331A607047A8498866704744
:104A900010B5830143EA016343EA02739F4C8834F3
:104AA000236010BDA14908677047A049C8647047DA
:104AB00002460020994B0833186820F0EC6042EA67
:104AC00001031843954B08331860704702460020D5
:104AD000924B0833186820F0784042EA01031843EB
:104AE0008E4B083318607047014600208B4A08320D
:104AF000106820F0030008431060704787480830B2
:104B0000006800F00C00704701460020834A08321C
:104B1000106820F0F0000843106070470146002044
:104B20007E4A0832106820F4E05008431060704755
:104B300001460020794A0832106820F4604040EABB
:104B4000C10010607047F0B500210022002402254A
:104B500000260223714F08373F6807F00C0121B18E
:104B6000042905D0082937D105E0724F076036E0E7
:104B7000714F076033E0694F3F1D3F68C7F38056B0
:104B8000664F3F1D3F6807F03F036EB16A4FB7FBAA
:104B9000F3F7DFF888C10CF1040CDCF800C0CCF3AB
:104BA000881C07FB0CF40CE0624FB7FBF3F7DFF84F
:104BB0006CC10CF1040CDCF800C0CCF3881C07FBC2
:104BC0000CF4564F3F1D3F68C7F301477F1C7D0023
:104BD000B4FBF5F7076002E0564F076000BF00BF67
:104BE0004E4F08373F6807F0F0010909534F7A5CD0
:104BF0000768D7404760494F08373F6807F4E051DE
:104C0000890A4E4F7A5C4768D7408760434F083720
:104C10003F6807F46041490B484F7A5C4768D740CA
:104C2000C760F0BD002100F44072B2F5407F0AD1A8
:104C30003A4A0832116821F4F811414A02401143FE
:104C4000364A08321160354A70321268C0F30B03DD
:104C50001A43324B70331A60704735494439086043
:104C600070473349403908607047364908607047DB
:104C700001460020294A8C32106820F01F004A1E8D
:104C80001043264A8C321060704701460020234AA8
:104C90008C32106820F4F8504A1E40EA02201F4A65
:104CA0008C3210607047014600201C4A8C3210681C
:104CB00020F4401008431060704701460020174A56
:104CC0008C32106820F440000843106070470146A1
:104CD0000020124A8C32106820F4403008431060E3
:104CE000704719490860704739B10C4A3032126870
:104CF00002430A4B30331A6006E0084A3032126829
:104D00008243064B30331A607047F9B1034A34329C
:104D100012680243014B34331A601CE00038024031
:104D2000FFFFF6EA10300024003000200000474268
:104D3000800E47420024F40000127A006600002032
:104D4000FFFCFF0F5C014742E01147428F4A1268A7
:104D500082438E4B1A60704739B18C4A121D12681B
:104D600002438A4B1B1D1A6006E0884A121D126816
:104D70008243864B1B1D1A60704739B1834A0C323F
:104D800012680243814B0C331A6006E07F4A0C32F2
:104D9000126882437D4B0C331A60704739B17B4AED
:104DA000103212680243794B10331A6006E0774ADA
:104DB000103212688243754B10331A60704739B154
:104DC000724A243A12680243704B243B1A6006E090
:104DD0006E4A243A126882436C4B243B1A60704737
:104DE00039B16A4A203A12680243684B203B1A6084
:104DF00006E0664A203A12688243644B203B1A6000
:104E0000704739B1614A1C3A126802435F4B1C3B40
:104E10001A6006E05D4A1C3A126882435B4B1C3BF9
:104E20001A60704739B1594A143A12680243574B15
:104E3000143B1A6006E0554A143A12688243534BF9
:104E4000143B1A60704739B1504A103A1268024355
:104E50004E4B103B1A6006E04C4A103A12688243EF
:104E60004A4B103B1A60704739B1484A1C321268ED
:104E70000243464B1C331A6006E0444A1C32126857
:104E80008243424B1C331A60704739B13F4A20328B
:104E9000126802433D4B20331A6006E03B4A203241
:104EA00012688243394B20331A60704739B1374A50
:104EB000243212680243354B24331A6006E0334A29
:104EC000243212688243314B24331A60704739B15F
:104ED0002E4A2C32126802432C4B2C331A6006E007
:104EE0002A4A2C3212688243284B2C331A607047AE
:104EF00039B1264A303212680243244B30331A60EB
:104F000006E0224A303212688243204B30331A6066
:104F10007047012808D11D493C31096841F008015A
:104F20001A4A3C32116007E018493C31096821F007
:104F30000801164A3C321160704739B1134A273ACA
:104F400012780243114B273B1A7006E00F4A273AAA
:104F5000127882430D4B273B1A7070470B48403044
:104F6000006840F080700949403108607047014690
:104F70000020064A283A12680A400AB1012000E0DF
:104F800000207047014926390870704734380240C4
:104F900010B501218803FFF756FF00214FF4804030
:104FA000FFF751FF10BD1C49086070471B4908629C
:104FB000704730B500228B071C0F0F2303FA04F251
:104FC000154B08338C1053F824309343124C08349B
:104FD0008D1044F8253023468C1053F824308C076C
:104FE000240F00FA04F423430B4C08348D1044F8CA
:104FF000253030BD0949DC31086070470849086038
:105000007047002004492031096801F4807109B11A
:10501000012000E0002070470038014000002742D6
:105020000004274210B50446FA48844208D1012101
:105030001020FFF708FF00211020FFF704FF57E0C2
:10504000F548844209D101214804FFF7EBFE002115
:105050004FF40030FFF7E6FE4AE0F048844209D101
:1050600001218804FFF7DEFE00214FF48020FFF7C6
:10507000D9FE3DE0EA48844209D10121C804FFF786
:10508000D1FE00214FF40020FFF7CCFE30E0E548D0
:10509000844209D101210805FFF7C4FE00214FF425
:1050A0008010FFF7BFFE23E0DF48844208D10121D2
:1050B0002020FFF7C8FE00212020FFF7C4FE17E0E4
:1050C000DA48844209D101218807FFF7ABFE0021AD
:1050D0004FF08040FFF7A6FE0AE0D548844207D192
:1050E00001214005FFF79EFE00216005FFF79AFEB3
:1050F00010BD2DE9FF4705460E460024A14600BF1E
:10510000A046B08900B100BF2C8A24F44054F08836
:1051100004432C82AC8941F20C608443B08831890D
:105120000843718908430443AC81AC8A24F4407479
:10513000B0890443AC826846FFF705FDB548854257
:1051400002D0B948854202D1DDF80C9001E0DDF8CB
:105150000890A88900F4004040B109EBC90000EBB9
:10516000091031684900B0FBF1F707E009EBC9000D
:1051700000EB091031688900B0FBF1F76420B7FB40
:10518000F0F004012009642101FB1078A88900F4E3
:10519000004040B1322000EBC800B0FBF1F000F05D
:1051A0000700044308E0322000EB08106421B0FB44
:1051B000F1F000F00F0004432C81BDE8FF874FF4AD
:1051C0001651016000218180C18001810C21418143
:1051D00000218181704710B502460020108A20F41A
:1051E00070600B884C8823438C882343CC882343EE
:1051F0001843108210BD0021018041808180C18050
:10520000704721B1828942F40052828104E0828990
:105210004DF6FF731A4082817047028B02F47F4281
:105220000283028B0A430283704721B1828942F4D0
:105230000042828103E08289C2F30E0282817047BC
:1052400021B1828A42F40062828204E0828A4FF2B3
:10525000FF731A4082827047C1F308028280704750
:1052600001468888C0F308007047028A4FF6F07341
:105270001A400282028A0A430282704721B182895F
:1052800042F00202828104E082894FF6FD731A40E7
:105290008281704782894FF2FF731A40828182892E
:1052A0000A4382817047028A4FF6DF731A400282F6
:1052B000028A0A430282704721B1028A42F4804284
:1052C000028204E0028A4BF6FF731A4002827047A2
:1052D000818941F001018181704721B1828A42F0C8
:1052E0000802828204E0828A4FF6F7731A408282B3
:1052F0007047028BD2B20283028B42EA0122028300
:10530000704721B1828A42F02002828204E0828AC0
:105310004FF6DF731A408282704721B1828A42F0D1
:105320001002828204E0828A4FF6EF731A40828272
:105330007047828A4FF6FB731A408282828A0A4340
:105340008282704721B1828A42F00202828204E0A6
:10535000828A4FF6FD731A40828270471AB1838A9F
:105360000B43838202E0838A8B4383827047F0B5CC
:105370000346002400260025002040F66A17B942A3
:1053800000D100BF1846C1F3421401F01F060127E7
:1053900007FA06F5012C01D10C3004E0022C01D1F2
:1053A000103000E014301AB107682F43076002E0A4
:1053B0000768AF430760F0BD02460020B1F5007FEB
:1053C00000D100BF13880B400BB1012000E000208A
:1053D000704701F40072B2F5007F00D100BFCA43EC
:1053E0000280704770B5024600240023002500208B
:1053F00040F66A16B14200D100BFC1F3421501F078
:105400001F03012606FA03F3012D13D196893340B9
:1054100017E0000000100140004400400048004038
:10542000004C004000500040001401400078004053
:10543000007C0040022D02D1168A334001E0968A9A
:1054400033400C12012606FA04F41688344013B1D6
:105450000CB1012000E0002070BD10B50022002337
:1054600040F66A14A14200D100BF0A120124944000
:10547000A3B2DC43048010BD10B50446FE4884424C
:1054800008D101210846FFF7DEFC00210120FFF7CB
:10549000DAFC9DE0B4F1804F08D101210846FFF706
:1054A000C1FC00210120FFF7BDFC91E0F3488442DC
:1054B00008D101210220FFF7B5FC00210220FFF7EF
:1054C000B1FC85E0EE48844208D101210420FFF7B9
:1054D000A9FC00210420FFF7A5FC79E0E9488442FB
:1054E00008D101210820FFF79DFC00210820FFF7CB
:1054F00099FC6DE0E448844208D101211020FFF7B7
:1055000091FC00211020FFF78DFC61E0DF48844210
:1055100008D101212020FFF785FC00212020FFF782
:1055200081FC55E0DA48844208D101210220FFF7CE
:105530008AFC00210220FFF786FC49E0D54884421E
:1055400009D101210804FFF77EFC00214FF48030CF
:10555000FFF779FC3CE0D048844209D1012148049E
:10556000FFF771FC00214FF40030FFF76CFC2FE0D7
:10557000CA48844209D101218804FFF764FC002154
:105580004FF48020FFF75FFC22E0C548844208D139
:1055900001214020FFF746FC00214020FFF742FC9C
:1055A00016E0C048844208D101218020FFF73AFC70
:1055B00000218020FFF736FC0AE0BB48844207D177
:1055C00001218015FFF72EFC0021A015FFF72AFC12
:1055D00010BD00220288A84B98420ED0AC4B9842D6
:1055E0000BD0B0F1804F08D0A44B984205D0A44B0B
:1055F000984202D0A34B984204D14FF68F731A40C1
:105600004B881A43A04B984207D0A04B984204D035
:105610004FF6FF431A400B891A4302804B68C3625E
:105620000B880385944B984202D0994B984201D144
:105630008B7A03860123838270474FF0FF314160EC
:105640000021018001814180817270470185828241
:1056500070470A46002101884FF68F7319401143A5
:105660000180704741627047C16270470146486AD5
:1056700070470146088D704721B1028842F002024E
:10568000028004E002884FF6FD731A4002807047E2
:1056900021B1028842F00402028004E002884FF641
:1056A000FB731A400280704721B1028842F08002E9
:1056B000028004E002884FF67F731A400280704730
:1056C00002884FF6F7731A40028002880A4302806C
:1056D000704702884FF6FF431A40028002880A434F
:1056E0000280704721B1028842F00102028004E08A
:1056F00002884FF6FE731A400280704770B500248E
:1057000000220023058C4FF6FE7635400584028C7E
:105710008388048B4FF68F752C40B51E2C400D8866
:105720002C43751E2A408D892A434D882A43524DA9
:10573000A84202D0564DA84213D14FF6F7752A4021
:10574000CD892A434FF6FB752A408D882A434FF6B0
:10575000FF652B404FF6FF552B400D8A2B434D8A9A
:105760002B43838004838D684563028470BD70B5CC
:10577000002400220023058C4FF6EF763540058487
:10578000028C8388048B48F6FF752C404FF6FF454A
:105790002C400D884FF6FF7606EA05252C434FF680
:1057A000DF752A408D8906EA05152A434D8806EAE9
:1057B00005152A43304DA84202D0354DA8421DD1CF
:1057C0004FF67F752A40CD894FF6FF7606EA05151C
:1057D0002A434FF6BF752A408D8806EA05152A43ED
:1057E0004FF6FF352B404FF2FF752B400D8A06EA2E
:1057F00085052B434D8A06EA85052B438380048368
:105800008D688563028470BD70B50024002200237A
:10581000058C4FF6FF6635400584028C8388848BA7
:105820004FF68F752C404FF6FC752C400D882C439D
:105830004FF6FF552A408D894FF6FF7606EA05257B
:105840002A434D8806EA05252A430B4DA84202D07B
:105850000F4DA84238D14FF2FF752A40CD894FF63F
:10586000FF7606EA05252A434FF6FF352A408D8844
:1058700006EA05252A4319E0000001400004004023
:1058800000080040000C00400010004000140040E0
:105890000004014000400140004401400048014034
:1058A00000180040001C0040002000404EF6FF752C
:1058B0002B404DF6FF752B400D8A06EA05152B434C
:1058C0004D8A06EA05152B43838084838D68C56362
:1058D000028470BD70B5002200230024058C4EF6B2
:1058E000FF7635400584038C8488828B48F6FF75EB
:1058F0002A404FF6FF452A400D884FF6FF7606EA0C
:1059000005252A434DF6FF752B408D8906EA05359E
:105910002B434D8806EA05352B43FE4DA84202D0A5
:10592000FD4DA84208D14BF6FF752C400D8A4FF66D
:10593000FF7606EA85152C43848082838D68056492
:10594000038470BD0021018041808180816081815C
:10595000C18101824182704770B503460020002456
:105960001846183001258D40ACB21D8CA5431D840E
:1059700009B108290AD100EB610005684FF68F765E
:10598000354005600568154305600FE00D1FC5F340
:105990004E052844056848F6FF76354005600568E1
:1059A0004FF6FF7606EA02263543056070BD416377
:1059B000704781637047C1637047016470470A464E
:1059C0000021018B4FF68F731940114301837047FB
:1059D0000A460021018B48F6FF7319404FF6FF730A
:1059E00003EA02231943018370470A460021818B91
:1059F0004FF68F7319401143818370470A46002187
:105A0000818B48F6FF7319404FF6FF7303EA0223B8
:105A10001943818370470A460021018B4FF6F773C3
:105A200019401143018370470A460021018B4FF250
:105A3000FF7319404FF6FF7303EA022319430183F2
:105A400070470A460021818B4FF6F77319401143C6
:105A5000818370470A460021818B4FF2FF73194002
:105A60004FF6FF7303EA02231943818370470A4606
:105A70000021018B4FF6FB731940114301837047DE
:105A80000A460021018B4FF6FF3319404FF6FF7392
:105A900003EA02231943018370470A460021818BE0
:105AA0004FF6FB7319401143818370470A4600216A
:105AB000818B4FF6FF3319404FF6FF7303EA022341
:105AC0001943818370470A460021018B4FF67F738B
:105AD00019401143018370470A460021018BC1F32D
